:107C0000549A559A5C985D9A84B714BE81FFABD1A3
:107C100085E08093810082E08093C00088E18093BA
:107C2000C10086E08093C20080E18093C4008EE0B2
:107C3000D1D0569A86E020E33CEF91E03093850066
:107C40002093840096BBB09BFECF4E9AA89581509E
:107C5000A9F7DD24D39445E0E42E31E1F32EABD037
:107C6000813421F481E08BD183E020C0823411F48F
:107C700084E103C0853419F485E081D191C0853554
:107C800081F499D0082F10E096D090E0982F8827A3
:107C9000802B912B880F991F9093010280930002F3
:107CA0007EC0863529F484E06AD180E07CD078C03B
:107CB000843609F04EC089D0E0910002F0910102B3
:107CC00080E7E030F80718F483E087BFE895C0E06C
:107CD000D1E071D089938091020281508093020299
:107CE0008823B9F7E0910002F091010280E7E030CB
:107CF000F80718F083E087BFE8953BD107B600FC92
:107D0000FDCF4091000250910102A0E0B1E02C9122
:107D100030E011968C91119790E0982F8827822B54
:107D2000932B1296FA010C01D7BEE89511244E5FF1
:107D30005F4FF1E0A038BF0751F7E0910002F091EA
:107D40000102E7BEE89507B600FCFDCFF7BEE89557
:107D500027C08437B9F439D00CD1E0910002F091FA
:107D600001023196F0930102E09300023197E49111
:107D70008E2F19D0809102028150809302028823B5
:107D800061F70EC0853739F4F4D08EE10CD085E967
:107D90000AD08FE08BCF813511F488E01BD0E9D079
:107DA00080E101D05CCF982F8091C00085FFFCCF8F
:107DB0009093C6000895A8954E9A8091C00087FFC1
:107DC000FCCF8091C6004E9A0895F5DFF4DF8093D2
:107DD0000202F1CFE0E6F0E098E19083808308951D
:107DE0008EBD0DB407FEFDCF8EB508950F931F9382
:107DF0008C01299A299883E0F3DF812F9927F0DFFE
:107E0000802FEEDF1F910F9108958F929F92AF9276
:107E1000BF92CF92DF92EF92FF920F931F93DF9367
:107E2000CF9300D000D000D0CDB7DEB784B18D6243
:107E300084B980E58CBD299881E0D2DF81E4D0DF70
:107E4000299A80E090E0D2DF8E010D5F1F4FF7E0AE
:107E5000EF2EF12CEC0EFD1E8FEFC2DFF8018193A7
:107E60008F01EE15FF05C1F78FEFBADF89838FEF22
:107E7000B7DFFE01319681838B819C81AD81BE810C
:107E8000815C904FA54AB94709F05AC089819A810F
:107E90009C01220F232F221F330B31958F77907077
:107EA000892B09F02F5FEE24FF24C22EDD24D69407
:107EB000DC2CCC24D794C79463E0862E9924939429
:107EC00055E0A52E41E1B42E37C000E011E08FEF60
:107ED00087DFF80181938F01F1E000381F07B9F7C0
:107EE000F999FECFF70187BEE89507B600FCFDCFF4
:107EF000A701A0E0B1E02C9111968C91119790E030
:107F0000982F8827820F911D1296FA010C0197BEB7
:107F1000E89511244E5F5F4FF1E0A038BF0759F795
:107F2000F701A7BEE89507B600FCFDCFB7BEE89500
:107F300080E890E0E80EF91EEC14FD0409F0C5CFCE
:107F400026960FB6F894DEBF0FBECDBFCF91DF915E
:107F50001F910F91FF90EF90DF90CF90BF90AF9067
:107F60009F908F90089580E035DF4FDFEE27FF2749
:107F7000099421DF803209F0F6DF84E114CF1F93EA
:0E7F8000182F19DF1150E9F7F4DF1F91089553
:0400000300007C007D
:00000001FF
